{
  "contractName": "Calculator",
  "abi": [
    {
      "constant": true,
      "inputs": [
        {
          "name": "input",
          "type": "string"
        }
      ],
      "name": "eval",
      "outputs": [
        {
          "name": "",
          "type": "int256"
        }
      ],
      "payable": false,
      "stateMutability": "pure",
      "type": "function"
    }
  ],
  "bytecode": "0x608060405234801561001057600080fd5b50611961806100206000396000f300608060405260043610610041576000357c0100000000000000000000000000000000000000000000000000000000900463ffffffff168063d6d8ac5b14610046575b600080fd5b34801561005257600080fd5b506100ad600480360381019080803590602001908201803590602001908080601f01602080910402602001604051908101604052809392919081815260200183838082843782019150505050505091929192905050506100c3565b6040518082815260200191505060405180910390f35b600060608060008492506100d683610117565b8092508193505050600081111561010a576100f1828261094e565b80925081935050506101038282610ec2565b935061010f565b600093505b505050919050565b6060600080600080855160405190808252806020026020018201604052801561015a57816020015b6101476118bd565b81526020019060019003908161013f5790505b5094506000935060009250600091505b85518210156108af57858281518110151561018157fe5b9060200101517f010000000000000000000000000000000000000000000000000000000000000090047f01000000000000000000000000000000000000000000000000000000000000000290507f2d00000000000000000000000000000000000000000000000000000000000000817effffffffffffffffffffffffffffffffffffffffffffffffffffffffffffff191614156103ee57855160018301101515610293576040517f08c379a000000000000000000000000000000000000000000000000000000000815260040180806020018281038252600d8152602001807f696e76616c696420696e7075740000000000000000000000000000000000000081525060200191505060405180910390fd5b60307f01000000000000000000000000000000000000000000000000000000000000000286600184018151811015156102c857fe5b9060200101517f010000000000000000000000000000000000000000000000000000000000000090047f0100000000000000000000000000000000000000000000000000000000000000027effffffffffffffffffffffffffffffffffffffffffffffffffffffffffffff1916101580156103e3575060397f010000000000000000000000000000000000000000000000000000000000000002866001840181518110151561037357fe5b9060200101517f010000000000000000000000000000000000000000000000000000000000000090047f0100000000000000000000000000000000000000000000000000000000000000027effffffffffffffffffffffffffffffffffffffffffffffffffffffffffffff191611155b156103ed576108a2565b5b60307f010000000000000000000000000000000000000000000000000000000000000002817effffffffffffffffffffffffffffffffffffffffffffffffffffffffffffff191610158015610488575060397f010000000000000000000000000000000000000000000000000000000000000002817effffffffffffffffffffffffffffffffffffffffffffffffffffffffffffff191611155b15610492576108a2565b7f2b00000000000000000000000000000000000000000000000000000000000000817effffffffffffffffffffffffffffffffffffffffffffffffffffffffffffff1916148061052357507f2d00000000000000000000000000000000000000000000000000000000000000817effffffffffffffffffffffffffffffffffffffffffffffffffffffffffffff1916145b8061056f57507f2a00000000000000000000000000000000000000000000000000000000000000817effffffffffffffffffffffffffffffffffffffffffffffffffffffffffffff1916145b806105bb57507f2f00000000000000000000000000000000000000000000000000000000000000817effffffffffffffffffffffffffffffffffffffffffffffffffffffffffffff1916145b8061060757507f2800000000000000000000000000000000000000000000000000000000000000817effffffffffffffffffffffffffffffffffffffffffffffffffffffffffffff1916145b8061065357507f2900000000000000000000000000000000000000000000000000000000000000817effffffffffffffffffffffffffffffffffffffffffffffffffffffffffffff1916145b1561074b5781831415156106e757604080519081016040528060007f0100000000000000000000000000000000000000000000000000000000000000027effffffffffffffffffffffffffffffffffffffffffffffffffffffffffffff191681526020016106c28886866113e6565b81525085858060010196508151811015156106d957fe5b906020019060200201819052505b6040805190810160405280827effffffffffffffffffffffffffffffffffffffffffffffffffffffffffffff191681526020016000815250858580600101965081518110151561073357fe5b906020019060200201819052506001820192506108a1565b60207f010000000000000000000000000000000000000000000000000000000000000002817effffffffffffffffffffffffffffffffffffffffffffffffffffffffffffff1916141561083257818314151561082757604080519081016040528060007f0100000000000000000000000000000000000000000000000000000000000000027effffffffffffffffffffffffffffffffffffffffffffffffffffffffffffff191681526020016108028886866113e6565b815250858580600101965081518110151561081957fe5b906020019060200201819052505b6001820192506108a0565b6040517f08c379a000000000000000000000000000000000000000000000000000000000815260040180806020018281038252600f8152602001807f756e65787065637465642063686172000000000000000000000000000000000081525060200191505060405180910390fd5b5b5b818060010192505061016a565b85518314151561094057604080519081016040528060007f0100000000000000000000000000000000000000000000000000000000000000027effffffffffffffffffffffffffffffffffffffffffffffffffffffffffffff1916815260200161091b88868a516113e6565b815250858580600101965081518110151561093257fe5b906020019060200201819052505b848494509450505050915091565b606060006060806000806109606118f9565b60008061096b6118f9565b60008b6040519080825280602002602001820160405280156109a757816020015b6109946118bd565b81526020019060019003908161098c5790505b5098508b6040519080825280602002602001820160405280156109e457816020015b6109d16118bd565b8152602001906001900390816109c95790505b5097506000965060009550600093505b8b841015610dd9578c84815181101515610a0a57fe5b90602001906020020151945060007f01000000000000000000000000000000000000000000000000000000000000000285600001517effffffffffffffffffffffffffffffffffffffffffffffffffffffffffffff19161415610a8e57848887806001019850815181101515610a7c57fe5b90602001906020020181905250610dcc565b610a9b8560000151611692565b15610ba357610aad85600001516117c4565b92505b6000871115610b7c578860018803815181101515610aca57fe5b906020019060200201519150610ae38260000151611692565b1515610aee57610b7c565b610afb8260000151611812565b610b088660000151611812565b0390506000811280610b25575082158015610b24575060008113155b5b15610b7257888760019003975087815181101515610b3f57fe5b906020019060200201519150818887806001019850815181101515610b6057fe5b90602001906020020181905250610b77565b610b7c565b610ab0565b848988806001019950815181101515610b9157fe5b90602001906020020181905250610dcb565b7f280000000000000000000000000000000000000000000000000000000000000085600001517effffffffffffffffffffffffffffffffffffffffffffffffffffffffffffff19161415610c1857848988806001019950815181101515610c0657fe5b90602001906020020181905250610dca565b7f290000000000000000000000000000000000000000000000000000000000000085600001517effffffffffffffffffffffffffffffffffffffffffffffffffffffffffffff19161415610dc9575b6000871115610d0b57888760019003975087815181101515610c8557fe5b9060200190602002015194507f280000000000000000000000000000000000000000000000000000000000000085600001517effffffffffffffffffffffffffffffffffffffffffffffffffffffffffffff19161415610ce457610d0b565b848887806001019850815181101515610cf957fe5b90602001906020020181905250610c67565b7f280000000000000000000000000000000000000000000000000000000000000085600001517effffffffffffffffffffffffffffffffffffffffffffffffffffffffffffff1916141515610dc8576040517f08c379a000000000000000000000000000000000000000000000000000000000815260040180806020018281038252601d8152602001807f6e6f206d61746368696e67206c65667420706172656e7468657369732e00000081525060200191505060405180910390fd5b5b5b5b5b83806001019450506109f4565b5b6000871115610eac57888760019003975087815181101515610df857fe5b906020019060200201519450610e118560000151611692565b1515610e85576040517f08c379a000000000000000000000000000000000000000000000000000000000815260040180806020018281038252601d8152602001807f6e6f206d61746368696e6720726967687420706172656e74686573697300000081525060200191505060405180910390fd5b848887806001019850815181101515610e9a57fe5b90602001906020020181905250610dda565b87869a509a505050505050505050509250929050565b60006060600080600080610ed46118f9565b87604051908082528060200260200182016040528015610f035781602001602082028038833980820191505090505b50955060009450600091505b87821015611346578882815181101515610f2557fe5b90602001906020020151905060007f01000000000000000000000000000000000000000000000000000000000000000281600001517effffffffffffffffffffffffffffffffffffffffffffffffffffffffffffff19161415610fae5780602001518686806001019750815181101515610f9b57fe5b9060200190602002018181525050611339565b6000851415611025576040517f08c379a000000000000000000000000000000000000000000000000000000000815260040180806020018281038252600e8152602001807f737461636b20697320656d70747900000000000000000000000000000000000081525060200191505060405180910390fd5b85856001900395508581518110151561103a57fe5b90602001906020020151925060008514156110bd576040517f08c379a000000000000000000000000000000000000000000000000000000000815260040180806020018281038252600e8152602001807f737461636b20697320656d70747900000000000000000000000000000000000081525060200191505060405180910390fd5b8585600190039550858151811015156110d257fe5b9060200190602002015193507f2b0000000000000000000000000000000000000000000000000000000000000081600001517effffffffffffffffffffffffffffffffffffffffffffffffffffffffffffff1916141561115657828401868680600101975081518110151561114357fe5b9060200190602002018181525050611338565b7f2d0000000000000000000000000000000000000000000000000000000000000081600001517effffffffffffffffffffffffffffffffffffffffffffffffffffffffffffff191614156111ce5782840386868060010197508151811015156111bb57fe5b9060200190602002018181525050611337565b7f2a0000000000000000000000000000000000000000000000000000000000000081600001517effffffffffffffffffffffffffffffffffffffffffffffffffffffffffffff1916141561124657828402868680600101975081518110151561123357fe5b9060200190602002018181525050611336565b7f2f0000000000000000000000000000000000000000000000000000000000000081600001517effffffffffffffffffffffffffffffffffffffffffffffffffffffffffffff191614156112c757828481151561129f57fe5b0586868060010197508151811015156112b457fe5b9060200190602002018181525050611335565b6040517f08c379a000000000000000000000000000000000000000000000000000000000815260040180806020018281038252601a8152602001807f6f7065726174696f6e206973206e6f7420737570706f7274656400000000000081525060200191505060405180910390fd5b5b5b5b5b8180600101925050610f0f565b60008514156113bd576040517f08c379a000000000000000000000000000000000000000000000000000000000815260040180806020018281038252600e8152602001807f737461636b20697320656d70747900000000000000000000000000000000000081525060200191505060405180910390fd5b85600186038151811015156113ce57fe5b90602001906020020151965050505050505092915050565b6000806000806000809350600092508691505b8582101561165857878281518110151561140f57fe5b9060200101517f010000000000000000000000000000000000000000000000000000000000000090047f01000000000000000000000000000000000000000000000000000000000000000290507f2d00000000000000000000000000000000000000000000000000000000000000817effffffffffffffffffffffffffffffffffffffffffffffffffffffffffffff191614156114af576001925061164b565b60307f010000000000000000000000000000000000000000000000000000000000000002817effffffffffffffffffffffffffffffffffffffffffffffffffffffffffffff191610158015611549575060397f010000000000000000000000000000000000000000000000000000000000000002817effffffffffffffffffffffffffffffffffffffffffffffffffffffffffffff191611155b156115dc57600a840293506030888381518110151561156457fe5b9060200101517f010000000000000000000000000000000000000000000000000000000000000090047f0100000000000000000000000000000000000000000000000000000000000000027f01000000000000000000000000000000000000000000000000000000000000009004038401935061164a565b6040517f08c379a000000000000000000000000000000000000000000000000000000000815260040180806020018281038252600f8152602001807f756e65787065637465642063686172000000000000000000000000000000000081525060200191505060405180910390fd5b5b81806001019250506113f9565b8215611684577fffffffffffffffffffffffffffffffffffffffffffffffffffffffffffffffff840293505b839450505050509392505050565b60007f2b00000000000000000000000000000000000000000000000000000000000000827effffffffffffffffffffffffffffffffffffffffffffffffffffffffffffff1916148061172557507f2d00000000000000000000000000000000000000000000000000000000000000827effffffffffffffffffffffffffffffffffffffffffffffffffffffffffffff1916145b8061177157507f2a00000000000000000000000000000000000000000000000000000000000000827effffffffffffffffffffffffffffffffffffffffffffffffffffffffffffff1916145b806117bd57507f2f00000000000000000000000000000000000000000000000000000000000000827effffffffffffffffffffffffffffffffffffffffffffffffffffffffffffff1916145b9050919050565b60007f5e00000000000000000000000000000000000000000000000000000000000000827effffffffffffffffffffffffffffffffffffffffffffffffffffffffffffff1916149050919050565b60007f2a00000000000000000000000000000000000000000000000000000000000000827effffffffffffffffffffffffffffffffffffffffffffffffffffffffffffff191614806118a557507f2f00000000000000000000000000000000000000000000000000000000000000827effffffffffffffffffffffffffffffffffffffffffffffffffffffffffffff1916145b156118b357600390506118b8565b600290505b919050565b604080519081016040528060007effffffffffffffffffffffffffffffffffffffffffffffffffffffffffffff19168152602001600081525090565b604080519081016040528060007effffffffffffffffffffffffffffffffffffffffffffffffffffffffffffff191681526020016000815250905600a165627a7a7230582025df332edd973a782192749d9e6a3750d6881aef2d4890abbec6e6d26a777e360029",
  "source": "pragma solidity ^0.4.23;\r\n\r\ncontract Calculator {\r\n    struct Token {\r\n        bytes1 kind;\r\n        int val;\r\n    }\r\n\r\n    /**\r\n     * Evaluates specified formula given in postfix form.\r\n     * Supported operations: + - * /\r\n     * Floating point numbers are not supported yet.\r\n     */\r\n    function eval(string input) public pure returns (int) {\r\n        bytes memory str = bytes(input);\r\n        Token[] memory tokens;\r\n        uint count;\r\n\r\n        (tokens, count) = tokenize(str);\r\n\r\n        if (count > 0) {\r\n            (tokens, count) = toPostfix(tokens, count);\r\n            return calculateRPN(tokens, count);\r\n        }\r\n\r\n        return 0;\r\n    }\r\n\r\n    function tokenize(bytes memory str) private pure returns (Token[] memory tokens, uint count) {\r\n        tokens = new Token[](str.length);\r\n        count = 0;\r\n        uint start = 0;\r\n\r\n        for (uint i = 0; i < str.length; i++) {\r\n            bytes1 c = str[i];\r\n            if (c == \"-\") {\r\n                if (i + 1 >= str.length) {\r\n                    revert(\"invalid input\");\r\n                }\r\n                if (str[i + 1] >= 48 && str[i + 1] <= 57) {\r\n                    continue;\r\n                }\r\n            }\r\n            if (c >= 48 && c <= 57) { // digits\r\n                continue;\r\n            }\r\n            if (c == \"+\" || c == \"-\" || c == \"*\" || c == \"/\" || c == \"(\" || c == \")\") {\r\n                if (start != i) {\r\n                    tokens[count++] = Token(0, parseInt(str, start, i));\r\n                }\r\n                tokens[count++] = Token(c, 0);\r\n                start = i + 1;\r\n            } else if (c == 32) { // space\r\n                if (start != i) {\r\n                    tokens[count++] = Token(0, parseInt(str, start, i));\r\n                }\r\n                start = i + 1;\r\n            } else {\r\n                revert(\"unexpected char\");\r\n            }\r\n        }\r\n        if (start != str.length) {\r\n            tokens[count++] = Token(0, parseInt(str, start, str.length));\r\n        }\r\n\r\n        return (tokens, count);\r\n    }\r\n\r\n    // ShuntingYard algorithm\r\n    function toPostfix(Token[] tokens, uint count) private pure returns (Token[], uint) {\r\n        Token[] memory stack = new Token[](count);\r\n        Token[] memory output = new Token[](count);\r\n        uint stackSize = 0;\r\n        uint outputSize = 0;\r\n        Token memory tok;\r\n\r\n        for (uint i = 0; i < count; i++) {\r\n            tok = tokens[i];\r\n            if (tok.kind == 0) {\r\n                output[outputSize++] = tok;\r\n            } else if (isOperator(tok.kind)) {\r\n                bool rightAssociative = isRightAssociative(tok.kind);\r\n                while (stackSize > 0) {\r\n                    Token memory op2 = stack[stackSize - 1];\r\n                    if (!isOperator(op2.kind)) {\r\n                        break;\r\n                    }\r\n                    int c = precedence(tok.kind) - precedence(op2.kind);\r\n                    if (c < 0 || (!rightAssociative && c <= 0)) {\r\n                        op2 = stack[--stackSize];\r\n                        output[outputSize++] = op2;\r\n                    } else {\r\n                        break;\r\n                    }\r\n                }\r\n                stack[stackSize++] = tok;\r\n            } else if (tok.kind == \"(\") {\r\n                stack[stackSize++] = tok;\r\n            } else if (tok.kind == \")\") {\r\n                while (stackSize > 0) {\r\n                    tok = stack[--stackSize];\r\n                    if (tok.kind == \"(\") {\r\n                        break;\r\n                    }\r\n                    output[outputSize++] = tok;\r\n                }\r\n                if (tok.kind != \"(\") {\r\n                    revert(\"no matching left parenthesis.\");\r\n                }\r\n            }\r\n        }\r\n\r\n        while (stackSize > 0) {\r\n            tok = stack[--stackSize];\r\n            if (!isOperator(tok.kind)) {\r\n                revert(\"no matching right parenthesis\");\r\n            }\r\n            output[outputSize++] = tok;\r\n        }\r\n\r\n        return (output, outputSize);\r\n    }\r\n\r\n    function isOperator(bytes1 c) private pure returns (bool) {\r\n        return c == \"+\" || c == \"-\" || c == \"*\" || c == \"/\";\r\n    }\r\n\r\n    function isRightAssociative(bytes1 c) private pure returns (bool) {\r\n        return c == \"^\";\r\n    }\r\n\r\n    function precedence(bytes1 c) private pure returns (int) {\r\n        if (c == \"*\" || c == \"/\") {\r\n            return 3;\r\n        }\r\n        return 2;\r\n    }\r\n\r\n    function calculateRPN(Token[] memory tokens, uint count) private pure returns (int) {\r\n        int[] memory stack = new int[](count);\r\n        uint stackSize = 0;\r\n        int a;\r\n        int b;\r\n\r\n        for (uint i = 0; i < count; i++) {\r\n            Token memory tok = tokens[i];\r\n\r\n            if (tok.kind == 0) {\r\n                stack[stackSize++] = tok.val;\r\n                continue;\r\n            } \r\n\r\n            if (stackSize == 0) {\r\n                revert(\"stack is empty\");\r\n            }\r\n            b = stack[--stackSize];\r\n\r\n            if (stackSize == 0) {\r\n                revert(\"stack is empty\");\r\n            }\r\n            a = stack[--stackSize];\r\n\r\n            if (tok.kind == \"+\") {\r\n                stack[stackSize++] = a + b;\r\n            } else if (tok.kind == \"-\") {\r\n                stack[stackSize++] = a - b;\r\n            } else if (tok.kind == \"*\") {\r\n                stack[stackSize++] = a * b;\r\n            } else if (tok.kind == \"/\") {\r\n                stack[stackSize++] = a / b;\r\n            } else {\r\n                revert(\"operation is not supported\");\r\n            }\r\n        }\r\n\r\n        if (stackSize == 0) {\r\n            revert(\"stack is empty\");\r\n        }\r\n\r\n        return stack[stackSize - 1];\r\n    }\r\n\r\n    // adopted from oraclize utils   \r\n    function parseInt(bytes str, uint start, uint end) private pure returns (int) {\r\n        int mint = 0;\r\n        bool negative = false;\r\n        for (uint i = start; i < end; i++) {\r\n            bytes1 c = str[i];\r\n            if (c == \"-\") {\r\n                negative = true;\r\n                continue;\r\n            }\r\n            if (c >= 48 && c <= 57) {\r\n                mint *= 10;\r\n                mint += int(str[i]) - 48;\r\n            } else {\r\n                revert(\"unexpected char\");\r\n            }\r\n        }\r\n        if (negative) {\r\n            mint *= -1;\r\n        }\r\n        return mint;\r\n    }\r\n}\r\n",
  "sourcePath": "C:\\code\\bcc\\src\\calculator\\contracts\\Calculator.sol",
  "compiler": {
    "name": "solc",
    "version": "0.4.24+commit.e67f0147.Emscripten.clang"
  },
  "schemaVersion": "2.0.1",
  "updatedAt": "2018-09-16T17:48:49.686Z"
}